:02000002D0002C
:1040000000400D00B8510D00000006000C00050135
:084010000401FD08000000009E
:04401800704F0D00D8
:10401C0009480A49884208B505D0094A824202D0AB
:10402C00121A00F0F7FE0748074A0021121A00F096
:10403C00FFFE014808BD00BF30E5032024510D00F0
:10404C009CE503209CE50320EDE7032070B5074EAB
:10405C00074C00F0FDFDA41BA4080025A54200D1CF
:10406C0070BD56F8043B98470135F7E7F8500D0042
:10407C001C510D0000F014B808B500F029F8BDE88B
:10408C00084000F09DBD00F0E7B900F0EDB90078F4
:10409C00B0FA80F0400970470123037070470000AC
:1040AC001FB5002401A8CDE90144ADF80C4000F087
:1040BC00F7F90648234622462146406800F094F959
:1040CC000121072000F034FE04B010BD1CE70320D2
:1040DC0008B50121072000F03CFE40F6B83000F096
:1040EC00D3F90720002100F034FEBDE808404FF45E
:1040FC007A7000F0C9B9000008B50120002100F069
:10410C001FF9064B00221A609A809A71A2F5803230
:10411C009A60BDE80840022000F002B99CE503203B
:10412C0008B5024B1B685B6C019308BD4802030089
:10413C0008B5024B1B685B68019308BD18020300AD
:10414C0008B5024B1B685B69019308BD180203009C
:10415C0008B5024B1B689B68019308BD2C02030039
:10416C0008B5024B1B68DB68019308BD2C020300E9
:10417C0008B5024B1B681B69019308BD2C02030098
:10418C0008B5024B1B681B6A019308BD280203008B
:10419C0008B5024B1B685B6A019308BD280203003B
:1041AC0008B5024B1B689B6A019308BD28020300EB
:1041BC0008B5024B1B68DB6A019308BD280203009B
:1041CC0008B5024B1B681B6B019308BD280203004A
:1041DC0008B5024B1B685B6B019308BD28020300FA
:1041EC0008B5024B1B681B6C019308BD2802030029
:1041FC0008B5024B1B685B69019308BD64020300A0
:10420C0008B5024B1B689B68019308BD680203004C
:10421C0008B5024B1B68DB68019308BD68020300FC
:10422C0008B5024B1B68DB69019308BD3002030023
:10423C0008B5024B1B681B6A019308BD30020300D2
:10424C0008B5024B1B681B68019308BD3C020300B8
:10425C0008B5024B1B68DB68019308BD3C020300E8
:10426C0008B5024B1B681B69019308BD3C02030097
:10427C0008B5024B1B685B69019308BD3C02030047
:10428C0008B5024B1B689B69019308BD3C020300F7
:10429C0008B5024B1B68DB69019308BD3C020300A7
:1042AC0008B5024B1B681B6A019308BD3C02030056
:1042BC0008B5024B1B689B6A019308BD3C020300C6
:1042CC0008B5024B1B681B68019308BD4C02030028
:1042DC0008B5024B1B681B69019308BD4C02030017
:1042EC0008B5024B1B685B69019308BD4C020300C7
:1042FC0008B5024B1B689B69019308BD4C02030077
:10430C0008B5024B1B68DB69019308BD4C02030026
:10431C0008B5024B1B681B6A019308BD4C020300D5
:10432C0008B5024B1B685B68019308BD20020300B3
:10433C0008B5024B1B685B69019308BD20020300A2
:10434C0008B5024B1B68DB6A019308BD2002030011
:10435C0008B5034B1B68D3F88830019308BD0000E7
:10436C002002030008B5034B1B68D3F8943001936B
:10437C0008BD00002002030008B5024B1B68DB6B74
:10438C00019308BD4402030008B5024B1B685B6C2B
:10439C00019308BD4402030008B5024B1B685B681F
:1043AC00019308BD4002030008B5024B1B689B68D3
:1043BC00019308BD4002030008B5024B1B68DB6883
:1043CC00019308BD4002030008B5024B1B681B6932
:1043DC00019308BD4002030008B5024B1B685B69E2
:1043EC00019308BD4002030008B5024B1B689B6992
:1043FC00019308BD4002030008B5024B1B68DB6942
:10440C00019308BD4002030008B5024B1B681B6AF0
:10441C00019308BD4002030008B5024B1B681B6BDF
:10442C00019308BD4002030008B5024B1B685B6B8F
:10443C00019308BD4002030008B5024B1B681B6CBE
:10444C00019308BD4002030008B5024B1B685B6C6E
:10445C00019308BD4002030008B5024B1B681B68A2
:10446C00019308BD1C02030008B5024B1B685B6876
:10447C00019308BD1C02030008B5024B1B685B6C62
:10448C00019308BD1C0203000021FFF751BF00007F
:10449C00024800230360FFF743BE00BFA8E50320DA
:1044AC001FB50C23ADF8043003688DF80630037A81
:1044BC008DF80730436802930021437AADF80D1054
:1044CC0001A88DF80F108DF80C30FFF75DFF05B0CB
:1044DC005DF804FB002240681146FFF795BF0022EF
:1044EC0040681146FFF7A0BF40680022FFF794BF59
:1044FC004068002281F00101FFF77EBF0023406875
:10450C001A461946FFF770BF002340681A46194631
:10451C00FFF762BF002240681146FFF755BF00222B
:10452C0040681146FFF740BF406800220221FFF7A8
:10453C0043BF002340681A46FFF72EBF024B0322ED
:10454C005A60024A1A607047ACE503208C4F0D008C
:10455C007047F8B5064615460C468F18BC4206D077
:10456C00336814F8011B9B6830469847F6E72846D9
:10457C00F8BD007C0022FFF703BE007C0021FFF792
:10458C0007BE007C0021FFF70BBE007C0021FFF76B
:10459C000FBE007C0021FFF713BE10B5142104469A
:1045AC0000F02EFC204610BD10B54FF47A73044673
:1045BC0008460021C4E90113034B23602074114603
:1045CC00FFF70EFE204610BDC84F0D00704710B50A
:1045DC001821044600F014FC204610BDF0B5037DF4
:1045EC00062B8DB00E4600F104074FF0000412D0DC
:1045FC0000F1080515F8011D0A22304600F03BF9C0
:10460C00AF42044419D0002CF4D02E21304600F0D7
:10461C002FF90444EEE72F236A4639460A208DF819
:10462C000040FFF7E5FD684600F02EFC33680246BB
:10463C00DB68694630469847044620460DB0F0BD0D
:10464C0010B5054B0446112240F8043B002100F044
:10465C00EFFB204610BD00BFF04F0D000346074A8C
:10466C0010B543F8042B01F1100251F8044B43F838
:10467C00044B9142F9D10A781A7010BDF04F0D001D
:10468C0010B59DF8084044EA032343EA024242EA8B
:10469C00016104234160037510BD13B5CB78009301
:1046AC008B784A780978FFF7EBFF02B010BD000059
:1046BC00014B024A1A607047B4E50320FC4F0D0011
:1046CC00002340681A46FFF767BE406800220221AB
:1046DC00FFF772BE002240681146FFF765BE00224C
:1046EC0040681146FFF770BE002340681A46194611
:1046FC00FFF772BE002340681A461946FFF774BED6
:10470C0040680021FFF798BE40680021FFF79CBE6F
:10471C004068002281F00101FFF76EBE4068002264
:10472C00FFF77ABE002240681146FFF77DBE0022DB
:10473C0040681146FFF768BE2DE9F043002495B0A0
:10474C0016460D460746FFF77BFF214618220EA89A
:10475C00009400F06DFB4023CDE90C3421466B46F0
:10476C000CAA3046FFF754FD0446002846D10246F9
:10477C0001216868FFF728FE0221804622466868FE
:10478C00FFF722FE009E81462146002E36D00029DE
:10479C0034D17368022B03D00A2B0BD0F669F4E7E3
:1047AC00B8F1000F04D0716938460431FFF775FF7A
:1047BC004146F3E7B9F1000F01D14946EEE77469C0
:1047CC00102201A800F034FB06238DF8143001AD43
:1047DC0004F108031834186859682A4603C20833D0
:1047EC00A3421546F7D101A906A807ADFFF736FF7E
:1047FC000FCD3C1D0FC42B682370DEE70098FFF72C
:10480C00FFFC384615B0BDE8F0830000024B034AAC
:10481C001A6000225A607047B8E5032008500D005A
:10482C00F8B506460D468F180024BD420CD03368EF
:10483C0015F8011B9B6830469847031E01DB1C448E
:10484C00F3E7002C08BF1C462046F8BD13B5044600
:10485C00084659B1019100F017FB23680199DB68F8
:10486C000246204602B0BDE81040184702B010BD09
:10487C0003689B68184730B58BB000238DF8243043
:10488C00012A98BF0A2209AC0D46B1FBF2F101FBDB
:10489C00125303F0FF03092B94BF30333733DBB2D1
:1048AC00AA4204F8013DEFD92146FFF7CFFF0BB028
:1048BC0030BD0000014B00229A607047C0E5032018
:1048CC0010B5044608462170FFF7AAFC002363606C
:1048DC00204610BD054B02221A60054B054A9A6012
:1048EC000020186098809871FFF71ABDDCE5032052
:1048FC00D0E503200000FFFF024B1A68024B1A6040
:10490C00704700BF30E50320E0E503207047417499
:10491C007047704708B5007CFFF7CAFC20EAE070CE
:10492C0008BD08B5007CFFF79BFC20EAE07008BDD1
:10493C0008B5007CFFF7A4FC40EAE07008BD08B5A0
:10494C00007CFFF795FC40EAE07008BD007CFFF7A7
:10495C009FBC37B5457C04462DB1207C03B0BDE827
:10496C003040FFF775BC007C0191FFF7A1FC0028DB
:10497C000199F2DC284603B030BD10B51421044671
:10498C0000F03EFA204610BD10B54FF0000C044666
:10499C00084611464FF47A72C4E901C2044A2260F7
:1049AC000122207462741A46FFF74AFC204610BD9F
:1049BC0060500D0013B50D4C2178BFF35B8F11F0D7
:1049CC00010110D120460191FFF761FB019950B113
:1049DC00074B084A0848FFF7D7FF2046FFF75CFB58
:1049EC00064800F011FA044802B010BDE4E50320BB
:1049FC006CE60320E8E50320F0E603201F490D00D8
:104A0C00417470477047704708B50021007CFFF770
:104A1C006FFC40EAE07008BD08B50121007CFFF78F
:104A2C0067FC40EAE07008BD08B5007CFFF758FC55
:104A3C0020EAE07008BD08B5007CFFF749FC20EACD
:104A4C00E07008BD13B50446007C0191FFF748FCEB
:104A5C000028019901DC607C20B1207CFFF750FC20
:104A6C0020EAE07002B010BD007CFFF751BC10B51D
:104A7C001421044600F0C4F9204610BD10B54FF4C3
:104A8C007A73044608460021C4E90113044B2360E1
:104A9C000123207463741146FFF712FC204610BDED
:104AAC0090500D0010B514220446002100F0C0F9FE
:104ABC00204610BD10B50F4C88B003A8FFF7F2FFCD
:104ACC002178BFF35B8F11F001010FD120460191CA
:104ADC00FFF7DDFA019948B103AA0748FFF7CEFFAB
:104AEC002046FFF7D9FA054800F08EF9024808B0C5
:104AFC0010BD00BF04E7032008E70320114A0D0096
:104B0C00002240681146FFF75FBC00224068114646
:104B1C00FFF77ABC002240681146FFF785BC40685D
:104B2C000022FFF779BC4068002281F00101FFF7F9
:104B3C0063BC002340681A461946FFF755BC002396
:104B4C0040681A461946FFF747BC002240681146D8
:104B5C00FFF72ABC406800220221FFF72DBC00237E
:104B6C0040681A46FFF718BC024B04225A60024AEE
:104B7C001A6070471CE70320C0500D00014B1860F1
:104B8C00704700BF34E5032008B50B4B43B1FFF76A
:104B9C0091FF03681B699847002801DDAFF3008083
:104BAC00064B43B1FFF706FF03681B6998470028C3
:104BBC0001DDAFF3008008BD000000000000000024
:104BCC0008B5FFF7E1FFFFF7BBFA014B186008BD12
:104BDC0038E703200548064A064908B5121A00F0C2
:104BEC0019F9054B054A1A6008BD00BF00F40320F3
:104BFC0004F4032020510D0000F403201E1C279AFE
:104C0C0007B5002300931A466FF07701FFF7AAFB54
:104C1C0003B05DF804FB000007B543880A2B08D0ED
:104C2C00502B0BD1094B1B684BB103B05DF804EB57
:104C3C001847FFF7E5FF03B05DF804FB0023009372
:104C4C001A466FF07701FFF78DFBF4E728E7032096
:104C5C0010B512480021FFF70FFC114B1A68114BCD
:104C6C009A42114B0CBF012200221A7001D0FFF79F
:104C7C00B1FFFFF75DFA044600F0E2F80B4B13B1FD
:104C8C002046AFF3008000210848FFF775FBBDE814
:104C9C00104007480021FFF75BBB00BF894B0D009C
:104CAC0000F403201E1C279A24E7032000000000B8
:104CBC00254C0D00232813B502D9002002B010BDDD
:104CCC00A0F10B03022B1AD8174C2178BFF35B8F82
:104CDC0011F001010BD120460191FFF7D8F9019990
:104CEC0028B11248FFF7ECFD2046FFF7D5F90F4B22
:104CFC001878FFF79DFA0028DFD10120DEE70128A4
:104D0C0009D800F059F80021007CFFF761FA80F017
:104D1C000100C0B2D2E709380128EED8FFF74AFEED
:104D2C00007CFFF7BDFAF2E72CE7032030E7032005
:104D3C00232838B504460D460AD8FF2908D0FFF7BA
:104D4C00B9FF28B129462046BDE83840FFF700BA24
:104D5C0038BD38B504460D46FFF702FAFF2810D0CF
:104D6C00062804D84D2323FA00F0C30709D42046A3
:104D7C00FFF7A0FF28B129462046BDE83840FFF7D1
:104D8C00F7B938BD7047000038B5002320254380A3
:104D9C00142304460380856005610649284600F00B
:104DAC0031F804496060284600F02CF8E060204699
:104DBC0038BD00BFF4500D0030B50E4D2978BFF34F
:104DCC005B8F11F0010487B011D12846FFF75FF912
:104DDC0068B101A8FFF7D8FF01AA21460648FFF7E2
:104DEC00E3FB2846FFF758F9044800F00DF8024899
:104DFC0007B030BD3CE7032040E70320914D0D0088
:104E0C00FFF743B9FFF73FB9002301461A4618468E
:104E1C0000F042B80A44914200F1FF3300D17047D0
:104E2C0010B511F8014B03F8014F9142F9D110BDA7
:104E3C0002440346934200D1704703F8011BF9E783
:104E4C0038B50D4B1D68AB6B04467BB91820FFF7CA
:104E5C0003FB0A4A0A4BA863C0E90023094B836091
:104E6C000B23838101220023C0E90423AB6B0022B6
:104E7C001C615A6138BD00BF34E503200E33CDAB45
:104E8C0034126DE6ECDE0500034613F8012B002A04
:104E9C00FBD1181A013870472DE9F843DFF8B880B8
:104EAC000646D8F800001F460D46914600F056F80D
:104EBC00254B1C6834B9254C1C60254B13B11B6861
:104ECC00C4F8883063681F2B07DDD8F8000000F0A9
:104EDC0047F84FF0FF30BDE8F8834EB3D4F88800A4
:104EEC0088B91C4B23B9D8F8000000F038F8F0E76B
:104EFC004FF48470FFF7B0FA0028F4D00023C0E917
:104F0C004033C4F88800636840F8239001229A402B
:104F1C0000EB8301D0F800311343022EC0F80031AE
:104F2C00C1F8807002BFD0F804311A43C0F80421D4
:104F3C006368D8F800005A1C0233626044F82350AE
:104F4C0000F00EF80020C6E7E0E7032054E703204A
:104F5C000000000065440D0098E503207047704781
:104F6C00704700001D400D0059400D0081400D00A0
:104F7C0085400D0000000000000000000000000053
:104F8C003F450D0035450D002B450D0021450D000D
:104F9C0015450D0009450D000D470D0015470D0079
:104FAC00FD440D00F5440D00EB440D00E1440D00F3
:104FBC0045470D0000000000000000005D450D009D
:104FCC00A7450D007F450D005F450D0087450D0081
:104FDC008F450D0097450D009F450D00000000000A
:104FEC0000000000E9450D00D9450D00DB450D0022
:104FFC00617070000000000000000000CD460D0044
:10500C00D7460D00E1460D00EB460D00F5460D00B0
:10501C0001470D000D470D0015470D001D470D00F4
:10502C0029470D0031470D003B470D0045470D004A
:10503C0025592D256D2D25645425483A254D3A25A5
:10504C0053257A0061736374696D6500000000007C
:10505C000000000019490D0087490D005F490D0043
:10506C002D480D002F490D004B490D003D490D00F9
:10507C0059490D001B490D0021490D00000000008D
:10508C0000000000134A0D007B4A0D00514A0D0030
:10509C002D480D00434A0D00154A0D00254A0D0000
:1050AC00754A0D00354A0D000D4A0D000000000038
:1050BC00000000006B4B0D00614B0D00574B0D00B9
:1050CC000D4B0D004B4B0D003F4B0D000D470D00D4
:1050DC0015470D00334B0D002B4B0D00214B0D00D4
:1050EC00174B0D0045470D000000000005410D0059
:1050FC009D440D0049450D00BD460D0019480D009D
:10510C00C1480D00E1480D0005490D00754B0D001F
:04511C00000000008F
:04512000000000008B
:1051240050500D0038E5032000000000000000008E
:10513400000000000000000000000000000000006B
:10514400000000000000000000000000000000005B
:10515400000000000000000000000000000000004B
:10516400000000000000000000000000000000003B
:10517400000000000000000000000000000000002B
:0C5184000000000000000000E5E7032030
:10519000FFFFFFFF00000102030405060708090ADC
:1051A0000B0C0D0E0F101112131415161718191AD7
:0851B0001B1C1D1E1F2028001E
:0451B80078563412DF
:04000003D000401CCD
:00000001FF
